:100000000C94DA000C94F7000C94F7000C94F700B1
:100010000C94F7000C94F7000C94F7000C94F70084
:100020000C94F7000C94F7000C94F7000C94F70074
:100030000C94F7000C94F7000C94F7000C94F70064
:100040000C94F7000C94F7000C94F7000C94F70054
:100050000C94F7000C94F7000C94F7000C94F70044
:100060000C94F7000C9401020C94D5010C94F70049
:100070000C94F7000C94F7000C94F7000C94F70024
:100080000C94F7000C94F7000C94F7000C94F70014
:100090000C94F7000C94F7000C94F7000C94F70004
:1000A0000C94F7000C94F7000C94F7000C94F700F4
:1000B0000C94F7000C94F7000C94F7000C94F700E4
:1000C0000C94F7000C94F7000C94F7000C94F700D4
:1000D0000C94F7000C94F7000C94F7000C94F700C4
:1000E0000C94F70001000102032002040506072416
:1000F00003000102030004040505060407010801CA
:1001000007010801070108010701080107010801AB
:10011000070108010701080107010701080107019C
:10012000080107010801070108010701080107018B
:1001300008010701080107013000310030003100DB
:10014000300031003000310030003100300031002B
:10015000300031003000300031000A010B01300066
:1001600031000A010B010A010B013000310030009F
:1001700031003000070107010701070108010801EC
:10018000080108010701070107010701080108012B
:10019000080108013000300030003000310031002B
:1001A0003100310030000A013000300031000B0115
:1001B0003100310011241FBECFEFD1E2DEBFCDBF31
:1001C00012E0A0E0B2E0E6E7FAE002C005900D928E
:1001D000AE30B107D9F712E0AEE0B2E001C01D9237
:1001E000A639B107E1F70E941C050C9439050C945F
:1001F0000000FC01EF5BFF4F9081829120E0981797
:1002000009F421E0822F0895FC01DC01AF5BBF4FB0
:100210001C928C91E05CFF4F80830895FC01DC010F
:10022000A05CBF4F8C91E80FF11D60838C918F5FB4
:100230008F738C930895FC01DC01AF5BBF4F8C91F1
:10024000E80FF11D80819C919F5F9F739C9308959F
:10025000FC01E05CFF4F8191208140E090E001963D
:100260008F73907030E08217930709F441E0842F78
:100270000895282F109253028091530280935202C6
:100280001092950280919502809394021092C10081
:1002900086E08093C200662321F082E08093C00054
:1002A00002C01092C0009F709093C5002093C400BC
:1002B00088E98093C10081E090E00895982F8091B3
:1002C000C00085FFFCCF9093C60080E090E00895C9
:1002D0008091C00087FFFCCF2091C600332727FD07
:1002E0003095C9010895982F8091C00085FFFCCFFB
:1002F0009093C60080E090E008958091C00087FF51
:10030000FCCF2091C600332727FD3095C901089501
:10031000482F809194022091950290E001968F736E
:10032000907030E082179307A1F3E0919402F0E01F
:10033000EC5AFD4F4083809194028F5F8F738093BE
:1003400094028091C10080628093C10080E090E0BF
:1003500008959091530280915202981721F42FEF43
:100360003FEFC9010895E0915302F0E0EE5EFD4FCA
:100370009081809153028F5F8F7380935302292F56
:1003800030E0EFCFCF93DF93EC01CE010E94A901C3
:100390009C018FEF2F3F380721F48C859D85892B99
:1003A000A1F3C901DF91CF9108951F920F920FB66B
:1003B0000F9211248F939F93EF93FF939091950247
:1003C00080919402981731F48091C1008F7D8093C1
:1003D000C1000EC0E0919502F0E0EC5AFD4F908113
:1003E000809195028F5F8F73809395029093C600E2
:1003F000FF91EF919F918F910F900FBE0F901F90E3
:1004000018951F920F920FB60F9211241F932F93DE
:100410003F934F935F936F937F938F939F93AF938C
:10042000BF93EF93FF931091C600E0910E02F091FD
:100430000F02309721F0812F0995813061F4E0910E
:100440005202F0E0EE5EFD4F1083809152028F5F0A
:100450008F7380935202FF91EF91BF91AF919F9163
:100460008F917F916F915F914F913F912F911F914C
:100470000F900FBE0F901F901895FC01413059F45A
:10048000208181E090E002C0880F991F6A95E2F711
:10049000282B20830895208181E090E002C0880FFE
:1004A000991F6A95E2F78095822380830895FC0165
:1004B000442359F4208181E090E002C0880F991F05
:1004C0006A95E2F7282B20830895208181E090E04F
:1004D00002C0880F991F6A95E2F780958223808376
:1004E00008958AE091E066E040E00E9457028BE0C8
:1004F00091E066E041E00E943D0280E197E228EB56
:1005000030E0F9013197F1F70197D9F78BE091E0ED
:1005100066E040E00E943D02F8948FEF80930A016C
:1005200010920B0110BA1092070181B987B9789423
:100530008AE790E062E041E00E943D028AE790E0B5
:1005400061E041E00E943D028AE790E060E040E027
:100550000E943D0280917C00806280937C008091AB
:100560007C00806480937C0081E090E060E00E94E9
:100570003901089580917A00806880937A00809193
:100580007A00806480937A0080917A0086FDFCCFA7
:10059000809179000895ECE7F0E09081282F2F7189
:1005A000907E292B2083EBE7F0E09081869586955D
:1005B0008870977F982B90830895DF92EF92FF9237
:1005C0000F931F931092100287E00E94CB02FF242A
:1005D00080E8D82EEE24E39480910B019F2D9F702C
:1005E000807F982B90930B0100E0083048F40023A3
:1005F00019F4E2B818B80DC082B1880F82B909C0E9
:10060000802F877019F412B8D8B803C088B18695C6
:1006100088B90E94BA02182F80911002112399F410
:100620008D3F20F48F5F8093100227C080E060E050
:1006300072E00E9488018EEF60E072E00E94880103
:10064000109210021AC0882369F080E060E072E026
:100650000E9488018091100260E072E00E9488018F
:10066000109210021F3F11F48EEF03C0112329F0E6
:10067000812F60E072E00E9488010F5F003109F075
:10068000B4CFF3948AE0F81609F0A6CF8091100257
:10069000882359F080E060E072E00E948801809138
:1006A000100260E072E00E9488011F910F91FF909C
:1006B000EF90DF900895CF92DF92EF92FF920F9329
:1006C0001F93CF93DF93EC0188810EE1809FF001AF
:1006D0001124E450FF4F85919491E88156E0F52E66
:1006E000EF9DF0011124E851FF4FE4916E2F40E09F
:1006F0000E94570298818FE0989FF0011124EE0F1D
:10070000FF1FE250FF4F85919491E881EF9DF0012A
:100710001124E851FF4FE4916E2F41E00E943D0209
:100720008881809FF0011124E050FF4F85919491C2
:10073000E88113E0E19FF0011124EE0FFF1FEA5161
:10074000FF4FE4916E2F40E00E9457028881809F06
:10075000F0011124EE5FFE4F85919491E881E19FB5
:10076000F0011124EE0FFF1FEA51FF4FE4916E2FAD
:1007700040E00E943D028881809FF0011124EC5FDF
:10078000FE4F85919491E881EF9DF0011124E9518C
:10079000FF4FE4916E2F40E00E9457028881809FB6
:1007A000F0011124EA5FFE4F85919491E881EF9D5D
:1007B000F0011124E951FF4FE4916E2F41E00E94B6
:1007C0003D02E881EF9DF0011124E751FF4FE491D4
:1007D0008E2F0E94CB0283E397E00197F1F70E94EE
:1007E000BA0290E0009739F480E060E072E00E9485
:1007F000880180E014C18F3F910509F48EEF60E01D
:1008000072E00E94880100E010E086E0C82E01C07E
:1008100087018881E82FF0E0B3E0EE0FFF1FBA9563
:10082000E1F7E00FF11FEE0FFF1FEC58FE4F85912F
:100830009491E88178010894E11CF11CF6E0DF2E28
:10084000EC9DF0011124EE0DFF1DEC51FF4FE491E2
:100850006E2F40E00E9457028881E82FF0E073E09D
:10086000EE0FFF1F7A95E1F73496E00FF11FEE0FC0
:10087000FF1FEC58FE4F85919491E881EC9DF001AB
:100880001124EE0DFF1DEC51FF4FE4916E2F40E05F
:100890000E943D0284E0E816F10409F0B9CF888196
:1008A0001EE1819FF0011124E85FFE4F8591949134
:1008B000E881ED9DF0011124E951FF4FE4916E2F85
:1008C00040E00E9457028881819FF0011124E65F79
:1008D000FE4F85919491E881ED9DF0011124E9513D
:1008E000FF4FE4916E2F41E00E943D028881819F7D
:1008F000F0011124E45FFE4F85919491E881ED9D14
:10090000F0011124E851FF4FE4916E2F40E00E9466
:1009100057028881819FF0011124E25FFE4F85918B
:100920009491E881ED9DF0011124E851FF4FE4918D
:100930006E2F40E00E943D028881819FF0011124CA
:10094000E05FFE4F85919491E88103E0E09FF00124
:100950001124EE0FFF1FEA51FF4FE4916E2F40E08C
:100960000E9457028881819FF0011124EE5EFE4FA4
:1009700085919491E881E09FF0011124EE0FFF1F13
:10098000EA51FF4FE4916E2F40E00E943D028881C2
:10099000819FF0011124EC5EFE4F85919491E881D6
:1009A000E09FF0011124EE0FFF1FEA51FF4FE49189
:1009B0006E2F41E00E9457028881819FF00111242F
:1009C000EA5EFE4F85919491E881E09FF001112449
:1009D000EE0FFF1FEA51FF4FE4916E2F40E00E949F
:1009E0003D028881819FF0011124E85EFE4F8591D0
:1009F0009491E881ED9DF0011124EB51FF4FE491BA
:100A00006E2F41E00E94570283E397E00197F1F7D0
:100A10000E94BA0290E08F3F910509F48EEF60E0EA
:100A200072E00E948801DF91CF911F910F91FF909A
:100A3000EF90DF90CF9008951F930E9471021FEFF7
:100A40008091C00085FFFCCF1093C6001092110268
:100A500009C081E192E00E945B03809111028F5FE7
:100A60008093110280911102843098F30E94DD027C
:060A7000E7CFF894FFCF70
:0E0A76000000000300000000730100000000FB
:00000001FF
